{
  "_format": "hh-sol-artifact-1",
  "contractName": "FixedWallet",
  "sourceName": "contracts/FixedWallet.sol",
  "abi": [
    {
      "inputs": [],
      "stateMutability": "nonpayable",
      "type": "constructor"
    },
    {
      "anonymous": false,
      "inputs": [
        {
          "indexed": true,
          "internalType": "address",
          "name": "user",
          "type": "address"
        },
        {
          "indexed": false,
          "internalType": "uint256",
          "name": "amount",
          "type": "uint256"
        }
      ],
      "name": "Deposit",
      "type": "event"
    },
    {
      "anonymous": false,
      "inputs": [
        {
          "indexed": true,
          "internalType": "address",
          "name": "user",
          "type": "address"
        },
        {
          "indexed": false,
          "internalType": "uint256",
          "name": "amount",
          "type": "uint256"
        }
      ],
      "name": "Withdraw",
      "type": "event"
    },
    {
      "inputs": [
        {
          "internalType": "address",
          "name": "",
          "type": "address"
        }
      ],
      "name": "balances",
      "outputs": [
        {
          "internalType": "uint256",
          "name": "",
          "type": "uint256"
        }
      ],
      "stateMutability": "view",
      "type": "function"
    },
    {
      "inputs": [],
      "name": "claimReward",
      "outputs": [],
      "stateMutability": "nonpayable",
      "type": "function"
    },
    {
      "inputs": [],
      "name": "kill",
      "outputs": [],
      "stateMutability": "nonpayable",
      "type": "function"
    },
    {
      "inputs": [],
      "name": "lastRewardTime",
      "outputs": [
        {
          "internalType": "uint256",
          "name": "",
          "type": "uint256"
        }
      ],
      "stateMutability": "view",
      "type": "function"
    },
    {
      "inputs": [],
      "name": "owner",
      "outputs": [
        {
          "internalType": "address",
          "name": "",
          "type": "address"
        }
      ],
      "stateMutability": "view",
      "type": "function"
    },
    {
      "inputs": [
        {
          "internalType": "address",
          "name": "newOwner",
          "type": "address"
        }
      ],
      "name": "setOwner",
      "outputs": [],
      "stateMutability": "nonpayable",
      "type": "function"
    },
    {
      "inputs": [
        {
          "internalType": "address payable",
          "name": "_target",
          "type": "address"
        }
      ],
      "name": "stealETH",
      "outputs": [],
      "stateMutability": "nonpayable",
      "type": "function"
    },
    {
      "inputs": [
        {
          "internalType": "uint256",
          "name": "amount",
          "type": "uint256"
        }
      ],
      "name": "withdraw",
      "outputs": [],
      "stateMutability": "nonpayable",
      "type": "function"
    },
    {
      "stateMutability": "payable",
      "type": "receive"
    }
  ],
  "bytecode": "0x608060405234801561001057600080fd5b50600080546001600160a01b031916331790556105e2806100326000396000f3fe60806040526004361061007f5760003560e01c80636bbec5701161004e5780636bbec570146101915780638da5cb5b146101c45780639231cf74146101f5578063b88a802f1461020a576100d3565b806313af4035146100d857806327e235e31461010d5780632e1a7d4d1461015257806341c0e1b51461017c576100d3565b366100d35733600081815260016020908152604091829020805434908101909155825190815291517fe1fffcc4923d04b559f4d29a8bfc6cda04eb5b0d3c460751c2402c5c5cc9109c9281900390910190a2005b600080fd5b3480156100e457600080fd5b5061010b600480360360208110156100fb57600080fd5b50356001600160a01b031661021f565b005b34801561011957600080fd5b506101406004803603602081101561013057600080fd5b50356001600160a01b03166102d6565b60408051918252519081900360200190f35b34801561015e57600080fd5b5061010b6004803603602081101561017557600080fd5b50356102e8565b34801561018857600080fd5b5061010b610451565b34801561019d57600080fd5b5061010b600480360360208110156101b457600080fd5b50356001600160a01b03166104aa565b3480156101d057600080fd5b506101d9610591565b604080516001600160a01b039092168252519081900360200190f35b34801561020157600080fd5b506101406105a0565b34801561021657600080fd5b5061010b6105a6565b6000546001600160a01b0316331461026a576040805162461bcd60e51b81526020600482015260096024820152683737ba1037bbb732b960b91b604482015290519081900360640190fd5b6001600160a01b0381166102b4576040805162461bcd60e51b815260206004820152600c60248201526b7a65726f206164647265737360a01b604482015290519081900360640190fd5b600080546001600160a01b0319166001600160a01b0392909216919091179055565b60016020526000908152604090205481565b60025460ff1615610331576040805162461bcd60e51b815260206004820152600e60248201526d1c99595b9d1c985b9d0818d85b1b60921b604482015290519081900360640190fd5b6002805460ff19166001908117909155336000908152602091909152604090205481111561039d576040805162461bcd60e51b8152602060048201526014602482015273696e73756666696369656e742062616c616e636560601b604482015290519081900360640190fd5b33600081815260016020526040808220805485900390555190919083908381818185875af1925050503d80600081146103f2576040519150601f19603f3d011682016040523d82523d6000602084013e6103f7565b606091505b5050905080610443576040805162461bcd60e51b8152602060048201526013602482015272115512081d1c985b9cd9995c8819985a5b1959606a1b604482015290519081900360640190fd5b50506002805460ff19169055565b6000546001600160a01b0316331461049c576040805162461bcd60e51b81526020600482015260096024820152683737ba1037bbb732b960b91b604482015290519081900360640190fd5b6000546001600160a01b0316ff5b6000546001600160a01b031633146104f5576040805162461bcd60e51b81526020600482015260096024820152683737ba1037bbb732b960b91b604482015290519081900360640190fd5b6040516000906001600160a01b0383169047908381818185875af1925050503d8060008114610540576040519150601f19603f3d011682016040523d82523d6000602084013e610545565b606091505b505090508061058d576040805162461bcd60e51b815260206004820152600f60248201526e1d1c985b9cd9995c8819985a5b1959608a1b604482015290519081900360640190fd5b5050565b6000546001600160a01b031681565b60035481565b4260035556fea2646970667358221220d33fc69621936da0ae227d22706f3641423e11838ef2747f2ec481ceb28424f264736f6c63430007060033",
  "linkReferences": {},
  "deployedLinkReferences": {}
}