{
  "_format": "hh-sol-artifact-1",
  "contractName": "VulnerableWallet",
  "sourceName": "contracts/VulnerableWallet.sol",
  "abi": [
    {
      "inputs": [],
      "stateMutability": "nonpayable",
      "type": "constructor"
    },
    {
      "anonymous": false,
      "inputs": [
        {
          "indexed": true,
          "internalType": "address",
          "name": "user",
          "type": "address"
        },
        {
          "indexed": false,
          "internalType": "uint256",
          "name": "amount",
          "type": "uint256"
        }
      ],
      "name": "Deposit",
      "type": "event"
    },
    {
      "anonymous": false,
      "inputs": [
        {
          "indexed": true,
          "internalType": "address",
          "name": "user",
          "type": "address"
        },
        {
          "indexed": false,
          "internalType": "uint256",
          "name": "amount",
          "type": "uint256"
        }
      ],
      "name": "Withdraw",
      "type": "event"
    },
    {
      "inputs": [
        {
          "internalType": "address",
          "name": "user",
          "type": "address"
        },
        {
          "internalType": "uint256",
          "name": "amount",
          "type": "uint256"
        }
      ],
      "name": "addBalance",
      "outputs": [],
      "stateMutability": "nonpayable",
      "type": "function"
    },
    {
      "inputs": [
        {
          "internalType": "address",
          "name": "",
          "type": "address"
        }
      ],
      "name": "balances",
      "outputs": [
        {
          "internalType": "uint256",
          "name": "",
          "type": "uint256"
        }
      ],
      "stateMutability": "view",
      "type": "function"
    },
    {
      "inputs": [
        {
          "internalType": "address",
          "name": "user",
          "type": "address"
        }
      ],
      "name": "getReward",
      "outputs": [],
      "stateMutability": "nonpayable",
      "type": "function"
    },
    {
      "inputs": [],
      "name": "kill",
      "outputs": [],
      "stateMutability": "nonpayable",
      "type": "function"
    },
    {
      "inputs": [],
      "name": "lastRewardTime",
      "outputs": [
        {
          "internalType": "uint256",
          "name": "",
          "type": "uint256"
        }
      ],
      "stateMutability": "view",
      "type": "function"
    },
    {
      "inputs": [],
      "name": "owner",
      "outputs": [
        {
          "internalType": "address",
          "name": "",
          "type": "address"
        }
      ],
      "stateMutability": "view",
      "type": "function"
    },
    {
      "inputs": [],
      "name": "payoutAll",
      "outputs": [],
      "stateMutability": "nonpayable",
      "type": "function"
    },
    {
      "inputs": [],
      "name": "protectedAction",
      "outputs": [],
      "stateMutability": "nonpayable",
      "type": "function"
    },
    {
      "inputs": [
        {
          "internalType": "address",
          "name": "newOwner",
          "type": "address"
        }
      ],
      "name": "setOwner",
      "outputs": [],
      "stateMutability": "nonpayable",
      "type": "function"
    },
    {
      "inputs": [
        {
          "internalType": "address",
          "name": "_target",
          "type": "address"
        }
      ],
      "name": "stealETH",
      "outputs": [],
      "stateMutability": "nonpayable",
      "type": "function"
    },
    {
      "inputs": [
        {
          "internalType": "uint256",
          "name": "",
          "type": "uint256"
        }
      ],
      "name": "users",
      "outputs": [
        {
          "internalType": "address",
          "name": "",
          "type": "address"
        }
      ],
      "stateMutability": "view",
      "type": "function"
    },
    {
      "inputs": [
        {
          "internalType": "uint256",
          "name": "amount",
          "type": "uint256"
        }
      ],
      "name": "withdraw",
      "outputs": [],
      "stateMutability": "nonpayable",
      "type": "function"
    },
    {
      "stateMutability": "payable",
      "type": "receive"
    }
  ],
  "bytecode": "0x608060405234801561001057600080fd5b50600080546001600160a01b031916331790556105c5806100326000396000f3fe6080604052600436106100ab5760003560e01c806341c0e1b51161006457806341c0e1b51461023c5780634da2317f146102515780636bbec570146102665780638da5cb5b146102995780639231cf74146102ae578063c00007b0146102c3576100ff565b806313af40351461010457806321e5383a1461013957806327e235e3146101725780632e1a7d4d146101b7578063365b98b2146101e15780633d7b369a14610227576100ff565b366100ff5733600081815260016020908152604091829020805434908101909155825190815291517fe1fffcc4923d04b559f4d29a8bfc6cda04eb5b0d3c460751c2402c5c5cc9109c9281900390910190a2005b600080fd5b34801561011057600080fd5b506101376004803603602081101561012757600080fd5b50356001600160a01b03166102f6565b005b34801561014557600080fd5b506101376004803603604081101561015c57600080fd5b506001600160a01b038135169060200135610318565b34801561017e57600080fd5b506101a56004803603602081101561019557600080fd5b50356001600160a01b031661033a565b60408051918252519081900360200190f35b3480156101c357600080fd5b50610137600480360360208110156101da57600080fd5b503561034c565b3480156101ed57600080fd5b5061020b6004803603602081101561020457600080fd5b5035610454565b604080516001600160a01b039092168252519081900360200190f35b34801561023357600080fd5b5061013761047e565b34801561024857600080fd5b50610137610497565b34801561025d57600080fd5b506101376104a5565b34801561027257600080fd5b506101376004803603602081101561028957600080fd5b50356001600160a01b031661050e565b3480156102a557600080fd5b5061020b610565565b3480156102ba57600080fd5b506101a5610574565b3480156102cf57600080fd5b50610137600480360360208110156102e657600080fd5b50356001600160a01b031661057a565b600080546001600160a01b0319166001600160a01b0392909216919091179055565b6001600160a01b03909116600090815260016020526040902080549091019055565b60016020526000908152604090205481565b336000908152600160205260409020548111156103a7576040805162461bcd60e51b8152602060048201526014602482015273696e73756666696369656e742062616c616e636560601b604482015290519081900360640190fd5b604051600090339083908381818185875af1925050503d80600081146103e9576040519150601f19603f3d011682016040523d82523d6000602084013e6103ee565b606091505b505090508061043a576040805162461bcd60e51b8152602060048201526013602482015272115512081d1c985b9cd9995c8819985a5b1959606a1b604482015290519081900360640190fd5b503360009081526001602052604090208054919091039055565b6003818154811061046457600080fd5b6000918252602090912001546001600160a01b0316905081565b6000546001600160a01b0316321461049557600080fd5b565b6000546001600160a01b0316ff5b60005b60035481101561050b57600381815481106104bf57fe5b60009182526020822001546040516001600160a01b039091169190670de0b6b3a76400009082818181858883f19350505050158015610502573d6000803e3d6000fd5b506001016104a8565b50565b6040516000906001600160a01b0383169047908381818185875af1925050503d8060008114610559576040519150601f19603f3d011682016040523d82523d6000602084013e61055e565b606091505b5050505050565b6000546001600160a01b031681565b60025481565b60025462093a8001421061050b57426002555056fea26469706673582212203e2ed18117fd62561f5e5854d7bec8d8427e9e50efd6712e0d6f0724a051822064736f6c63430007060033",
  "linkReferences": {},
  "deployedLinkReferences": {}
}